:020000040800F2
:10000000F03100202D0300081B3E00086D3B000866
:10001000193E0008F5080008215200080000000001
:100020000000000000000000000000002543000860
:10003000EB09000800000000E54100082743000824
:1000400049030008490300084903000800000000B4
:1000500049030008490300084903000800000000A4
:100060004903000849030008000000004903000894
:100070004903000849030008490300084903000830
:100080004903000849030008490300084903000820
:100090004903000849030008490300084903000810
:1000A000490300084903000849030008F109000852
:1000B00049030008490300084903000849030008F0
:1000C00049030008490300084903000849030008E0
:1000D0000000000049030008490300084903000824
:1000E00049030008490300084903000849030008C0
:1000F0004903000849030008490300080000000004
:1001000000000000490300084903000849030008F3
:10011000490300084903000849030008490300088F
:10012000490300084903000849030008490300087F
:100130004903000800000000000000004903000817
:10014000490300080000000000000000000000005B
:10015000000000000000000049030008000000004B
:100160000000000000000000414B000849030008A7
:10017000000000000000000000000000000000007F
:10018000000000000000000000000000000000006F
:10019000000000000000000000000000000000005F
:1001A00000000000000000004903000849030008A7
:1001B00049030008490300084903000849030008EF
:1001C0004903000849030008000000000000000087
:1001D00000000000000000000000000049030008CB
:1001E00049030008000000000000000000000000BB
:1001F00000000000000000000000000000000000FF
:100200000000000049030008490300080000000046
:10021000000000004903000800000000000000008A
:10022000000000000000000000000000490300087A
:10023000490300080000000000000000000000006A
:10024000000000000000000000000000490300085A
:10025000490300084903000800F002F800F057F8CD
:1002600014A696E8000CB244B344DA4501D100F07C
:100270004EF8BAE80F000FA696E83000A5EB04058B
:1002800004EB0607AAEB0704A7F101074FEA1515CF
:100290004FEA3414A4F10104AC4201D300F037F862
:1002A00013F0010F18BFFB1A43F0010300F001F82F
:1002B000DBE71847C46B0000E46B0000103A24BF72
:1002C00078C878C1FAD8520724BF30C830C144BFBB
:1002D00004680C6070470000704700000023002491
:1002E00000250026103A28BF78C1FBD8520728BF46
:1002F00030C148BF0B607047642900F07780002050
:1003000070471FB506F099FD1FBD10B510BD00F078
:1003100004FA1146FFF7F5FF06F072FC00F022FA2E
:1003200003B4FFF7F2FF03BC00F02AFA0A48804743
:100330000A480047FEE7FEE7FEE7FEE7FEE7FEE7C6
:10034000FEE7FEE7FEE7FEE7FEE70000044805499A
:10035000054A064B70470000D943000859020008BF
:10036000F00D0020F0310020F0110020F0110020ED
:100370000FB41CB5084B06AA7B446946009005984B
:1003800000F0B3F904460020694600F0C1F92046A8
:100390001CBC5DF814FB00009503000070B504461A
:1003A00085690068C10601D5302600E02026C00717
:1003B00007D070BDD4E9012130469047206A401C27
:1003C00020626D1EF6D570BD70B504468569007853
:1003D000C00707D170BDD4E9012120209047206AD1
:1003E000401C20626D1EF6D570BD00002DE9F04165
:1003F0000646002410687529314616A510D0AFF3C3
:100400000080002802DA404213A507E031688A071D
:1004100001D512A502E0490704D511A5012401E088
:10042000AFF3008000210A2206F1240709E0B0FBA7
:10043000F2FCB0FBF2F302FB1C003030785418469B
:10044000491C0028F3D123462A463046BDE8F04136
:1004500000F0EDB8000000002D0000002B000000AF
:10046000200000002DE9F05F894604464FF0000AA5
:10047000DFF824B1FB44C0F820A02046E16888479B
:1004800000287DD0252806D0D4E901219047206A94
:10049000401C2062F1E700255F462046E16888475E
:1004A0002028064607DB312E05D2B81910F8200C9B
:1004B00008B10543F1E7A80701D525F00405C4F804
:1004C0001CA00027C4F818A02A2E09D0304606F038
:1004D000ADFC38B304EB8708303EC8F8186019E06B
:1004E00059F8041B204604EB87029161E1688847B4
:1004F000012F064618D1E069002820DA25F02005F2
:100500001DE0D8F8180000EB800006EB4000303802
:10051000C8F818002046E1688847064606F086FCC1
:100520000028EED1012F0AD02E2E08D12046E168F6
:1005300088477F1C0646022F45F02005C4DBA069D2
:10054000002803DA404245F00105A061E80701D028
:1005500025F01005A6B1A6F14100192802D82036D1
:1005600045F400654A463146204625604D46FFF772
:10057000C3FE60B1012807D0ED1D25F0070000E0A3
:1005800007E000F1080978E705F1040975E730464E
:100590007AE7206ABDE8F09FDC69000010B5431CD3
:1005A00002E010F8011B71B18107FAD14FF001325E
:1005B00002C88C1A8C4314EAC211F9D0C01A0A0678
:1005C00003D0C01E10BDC01A10BD0A0401D0801E89
:1005D00010BD0902FCD0401E10BD4FF0000200B556
:1005E000134694469646203922BFA0E80C50A0E856
:1005F0000C50B1F12001BFF4F7AF090728BFA0E804
:100600000C5048BF0CC05DF804EB890028BF40F8CF
:10061000042B08BF704748BF20F8022B11F0804F11
:1006200018BF00F8012B70477047704770472DE9DD
:10063000F0470D4699469246044600F124080168A9
:10064000880604D5E06921F01001216000E0012056
:10065000A84201DD471B00E00027A1697A1902EBDF
:100660000900081AA0612078C00602D42046FFF7CE
:1006700095FE002608E0D4E901211AF8060090470B
:10068000206A401C761C20624E45F4DB2078C006B0
:100690000AD52046FFF782FE06E0D4E9012130208A
:1006A0009047206A401C2062381EA7F10107F4DC45
:1006B00007E0D4E9012118F805009047206A401CA2
:1006C0002062281EA5F10105F3DC2046FFF77CFE21
:1006D0002078000602D50220BDE8F0870120FBE764
:1006E00001694A1C02610878704700B58FB0CDE9F6
:1006F00001310021059105497944CDE903101146E6
:100700006846FFF7AFFE0FB000BD0000E5FFFFFF3A
:100710000A6802F8010B0A607047754600F02CF871
:10072000AE4605006946534620F00700854618B0DE
:1007300020B5FFF70BFEBDE820404FF000064FF05C
:1007400000074FF000084FF0000BAC46ACE8C009C2
:10075000ACE8C009ACE8C009ACE8C00921F0070169
:100760008D46704710B50446AFF300802046BDE8C3
:100770001040FFF7D5BD000000487047580000202A
:1007800001491820ABBEFEE7260002007047014673
:10079000C06D836D826D13F0500F07D0D20648BF35
:1007A00000F01EBB006D826E0846104742F40071D7
:1007B000816501680B68CA681B0703D4910707D5D8
:1007C00000F00CBB12F4406FFAD1C9688904F7D469
:1007D000816D21F480718165816DC9045EBF816D79
:1007E00041F00101816500F0F9BAC06D816D41F001
:1007F00040018165C16D41F00401C16500F0F0BAAE
:10080000C06D00F0ECBA0000B0B5016804468A681B
:100810008868C0074FF0000022D012F002021FD1FA
:10082000886800F00D00012818D188682D4A104012
:10083000023088600320086001F024F90546206832
:100840008068C00704BF0020B0BD01F01BF9401B49
:100850000328F4D320688068C007F0D003F0DEFAE4
:10086000B0BD00BF7CB504460020019021688A68B5
:10087000D2072AD11B4E886806F17F02104222D18E
:100880008868304040F00100886017480068000226
:100890001CD401F0F7F8054620680168C9071CBFA1
:1008A00000207CBD8168C90701BF8168314041F0EB
:1008B0000101816001F0E6F8401B0328ECD32068B9
:1008C0000068C007E8D103F0A9FA7CBD07480849D1
:1008D00003F055FB019001980028DAD00198013807
:1008E000F8E700BFC0FFFF7F088302420800002036
:1008F000400D0300FEE741EA00031343002908BF4F
:100900001146002818BF014681EA0300000C18BFF9
:100910000120704748B190F8200049B191F82010AB
:1009200088421CBF0220704702E041B191F82000CC
:100930002AB192F8201088421CBF03207047002083
:1009400070472DE9F043D2F800C08568C9B14FF671
:10095000FC7E00274FF6FF7800264FF0000901EAE1
:100960000E03AF4224D29E4222D004682FB124EA63
:100970000804B146344354F82C4004EA0E0601370B
:10098000EFE700234FF6FC784FF6FF7E00264FF08E
:1009900000099D420BD007682BB127EA0E04B1462F
:1009A000344354F82C7007EA08060133F1E72F4668
:1009B00039B14FF6FC7319408E421CBF0120BDE8CF
:1009C000F0834088976046EA004149EA0043D160DD
:1009D000536051F82C1029B14FF6FC7300041940F4
:1009E000084310610020BDE8F083704772B6FEE74F
:1009F000014800F09BBE00BF60060020BCB5044665
:100A00000020019094F85400012804BF0220BCBDCE
:100A100001200D4684F8540003F01EFBA16D10B1B7
:100A200041F0100124E041F20212144B91430231D3
:100A3000A16521688A681A4005F080431A4402F1D2
:100A400000428A600E4A8B68B3F1FF3F0CDC019BC9
:100A500001330193019B9342F5D3A06D40F0100048
:100A600020F00201012003E0A16D012262F30101E7
:100A7000002284F85420A165BCBD00BFC0FFFF3F29
:100A800000F8C3252DE9F84304460020009094F8AF
:100A90005400012804BF0220BDE8F88301208846E5
:100AA00084F854002068816849072ED4D8F80010D3
:100AB000C04D012905D1D5F8C82042F00102C5F882
:100AC000C820D8F804201F27C1F3846102F01F0357
:100AD000C2F301229F40994000EB8202166BBE4395
:100AE0003143116303F030FA40F0B680D8F80820A3
:100AF000D8F80010B2F1004F0DD1002203F037F802
:100B00002068416941F000410BE0A06D40F02000F9
:100B1000A065012049E103F02AF82068416921F02D
:100B200000414161D8E90412C368042965D1016E0E
:100B3000066ED8F80030AE46A04DC6F38466AC46CB
:100B40001946C3F3846293FAA3F3B3FA83F76FF3FE
:100B50001F5100293B4608BF13469E420DD1016E2E
:100B600021F000410166D8F8003003EA0501C3F323
:100B7000846293FAA3F3B3FA83F73B4600297546E0
:100B800008BF1346466E466EC6F384669E420ED17B
:100B9000416E21F0004141666146D8F8003003EA19
:100BA0000C01C3F3846293FAA3F3B3FA83F73B46D1
:100BB000002908BF1346866E866EC6F384669E4281
:100BC0000DD1816E21F000418166D8F8003003EA32
:100BD0000C01C3F3846293FAA3F3B3FA83F70029F9
:100BE00008BF1746C16EC16EC1F38461B94202BF2E
:100BF000C16E21F00041C1662EE000F16007D8F817
:100C000000C06D4E57F821E00EEA060E062606EAF1
:100C100093039A400CF0F8431A4342EA0E0242F062
:100C2000004247F82120D8F81010D8F8182057F8BB
:100C3000213023F080731A4347F82120D8F8101090
:100C400057F8212098F81C3022F00072012B08BFC1
:100C500002F1007247F82120D8F800108268D2070C
:100C600057D1D0F8B030D8F80C600A46A946534D99
:100C70006FF31F5206F018079343FD400D402B43BE
:100C8000C0F8B0304E4B9E4242D1DAB191FAA1F198
:100C9000B1FA81F2531C910603F01E05092D1CD8F0
:100CA000013201F1806103F01F03012502F01F02F0
:100CB00001F0F84105FA03F302EB420241EA025166
:100CC00019431FE00122C1F3846302EB91620133F7
:100CD00002F01E058A0E0A2DE2D3013203F01F0333
:100CE000012501F1806102F01F0205FA03F3354D81
:100CF00001F0F84102EB420205EB025211431943A5
:100D000041F00071D8F8082002F031FFD8F8001047
:100D10004D462D48014247D0D5F808232B4B994228
:100D200002F0E07008BF12F400030ED0284B994285
:100D30001ED10023B3EB106F1AD12168A94233D121
:100D400003F0D3F940F080702CE02168A9422BD148
:100D500003F0CBF97D4940F40000C5F808037A4858
:100D600003F00DF900900098F0B100980138F9E710
:100D7000184B994208BF12F480020CD016488142E9
:100D800012D12068A8420FD0D0F8C81041F002015B
:100D9000C0F8C81008E02168A94205D103F0A5F900
:100DA00040F48000C5F808030020002184F85410A6
:100DB000BDE8F8830080024200F0FF03FFFF0F0050
:100DC00000007F40000020FE00000880000021C3DA
:100DD00004006088000052C74000209970477047A7
:100DE00070470000F8B504460020009074B3A06D71
:100DF00028B9204600F0B4F803F0D4F8E065216883
:100E00008868800041BF88684E4A104088608868C2
:100E1000C00015D44B488A6800F1805010404B4AFE
:100E200000F18050886048480068B0FBF2F0022270
:100E300002EB40000090009810B100980138F9E7EB
:100E40008868C00004D402F0E9FF02E00120F8BD88
:100E500000208A68A36D02F0040203F01003D21888
:100E6000A26D57D122F481720232A2658A68D2073C
:100E70000AD1374B374AD358DB0705D16368156869
:100E800025F47C152B431360627EA36B43EA423248
:100E9000D4E902352A431A4394F8203042EA034247
:100EA000012B04D1636A2C4D05EB43431A43A36A1B
:100EB00023B1E56A03F478732B431A43CB68274DBB
:100EC0002B401A43CA60226B0B6923F040631A431C
:100ED0000A618A68120724D4CA6894F8345044F22C
:100EE000020394F83C609A43237E6D0045EA833305
:100EF0001A43CA60012E0A6910D140F2FD7304F151
:100F000040079A43E8CF1A432A4332433A4342F018
:100F1000010205E042F01001012010E022F0010280
:100F20000A610A6B236922F00F02012B02BFE369F9
:100F3000013B1A430A63A16D012262F30101A1651D
:100F4000F8BD00BFC0FFFF5F08000020400D030098
:100F500000FDFFFF088302420000FEFF0740F0FF94
:100F6000F0B5BFB024AD0446542105F11800FFF7D9
:100F700034FB02A858213030FFF72FFB20683B4993
:100F8000884271D14FF480214FF4001000260127D0
:100F90000D910821029002200396CDE90B66CDE960
:100FA000091180211B90CDE90700CDE904070691C6
:100FB00002A801F0A9FC08B1FFF718FD2C48016850
:100FC00041F4806101601421006800F480600190A8
:100FD000212024900198281DFFF7FFFA4FF480305C
:100FE00014213596CDE92D77CDE92A7005F12C0035
:100FF000FFF7F3FA1F4F284607F11806314600F0B5
:10100000B3F808B1FFF7F2FC38460021324600F091
:1010100043FA08B1FFF7EAFC164800F0E5FA08B118
:10102000FFF7E4FC1448812100224FF4800381641F
:101030001249C0E90E32C0E91022016000F0D6F971
:1010400008B1FFF7D3FC0C4D0A49284600F08CFA92
:1010500008B1FFF7CBFC28461021EC65256500F0B0
:101060004BFB08B1FFF7C2FC3FB0F0BD008002426D
:101070008C0C0244BC00002060060020500002409E
:10108000F0B59BB002F096FF03D494F85400012809
:1010900001D1022052E0012016460D4602F0FBFF6E
:1010A00018B102F07FFF012048E0A06D40F6017109
:1010B00000222B4F884302F082FF44BFE06D20F0F6
:1010C0000600E0651C232168206D0B604B6843F02F
:1010D00010034B6084F85420204BCA6842F0010290
:1010E000CA601D4AC0E91873826690F85020120643
:1010F00006D48269012A15D0022A08BFB60012E080
:10110000406F0028CFD001680029CCD0684600F09D
:10111000D7F80028C7D10698012811D0022808BFA7
:10112000B6000EE0760040312A46334600F0B5FBAB
:1011300021680C4B8A681A4004328A601BB0F0BDEB
:101140007600206D2168426F40311268C2E9026169
:10115000156100F07FFAEBE7EB07000801080008D3
:101160008F070008C0FFFF7F002877D0002975D0C7
:10117000F0B500F11006C26B78CE344322431A4317
:101180002A430A6003789B0614D500F124054FF02A
:101190007C77866B38CD07EB0454354304F07C74C0
:1011A0002C434FF47C7505EB031303F47C7323434A
:1011B0001A430A60426840F2FF24036B22401A433C
:1011C0004A60C368B3F5007F05D0B3F5806F04D1E2
:1011D0000478A40601D51A434A60436B1A434A6057
:1011E000436C43B1856C046C05F03F0544EA05444B
:1011F00022431A434A60B0F868308B600278920745
:101200002E4A21D5C46C4FF0805502EB04441440A3
:1012100023438B60046D05EAD4044FF0005523444A
:101220008B60446D05EA94044FF0804523448B6045
:10123000846D05EA540423448B60C46DB4F1FF3F10
:10124000DCBF03F100438B60036ECB60436E0B6128
:1012500003689C0704D44FF4A0602BE00120704782
:10126000036D002B00D55B426FF35F3302F1C05476
:101270004B61456D2E04002D48BF05FB04F634403C
:1012800023434B61836D002B00D55B429BB202F17F
:1012900078428B61C46D2504002C48BF04FB02F525
:1012A00045EA03028A61036898074FF4E06058BF7B
:1012B0004FF4A060184308620020F0BD0000FF0753
:1012C000B8B3B1B3B0B591F82020474C02600B68B9
:1012D00003F0080303610B6803F4002343610B6808
:1012E00003F0030383610B6803F44033C3610B68AD
:1012F000C3F30513013343620B68C3F30553013392
:1013000083620B6803F04023C3620B68234083634E
:101310000B6803F4C053C3634B689C050BD4DBB26A
:1013200043604B795B0754BF00234FF48063C36075
:1013300005E0012155E04FF40073C36043604B6842
:10134000920703F4006383604B6803F44043036433
:101350004B6803F040734364CB8803F03F0383641E
:101360004B6803F0404303630B8983660BD401226F
:10137000C264CA6802660A6900214266C0E91411A3
:10138000C0E916112BE04A896FF3DF220132C264F3
:10139000CA6802660A6942664B696FF35F33036588
:1013A000CA8A6FF35F3242658C68E50042BF5B42D8
:1013B00003658C68A30044BF524242650B8B836572
:1013C0008A69120CC2658C68650042BF5B42836506
:1013D0008C68B4F1FF3FDCBF5142C1650021BDE81C
:1013E000B0400846704700BF0020000CB0B504466E
:1013F00000F048FBC4B10546022084F854000020E8
:1014000084F84C002068416941F006014161206880
:101410004169C9070AD000F035FB401B0528F6D901
:1014200001200322102131E00120B0BD19494218EA
:101430006FF01F0101EBF213D4E90E152943082BBD
:1014400003D34FEAF212072A01D8226C11434269F2
:1014500022F443021143416100210164626C426441
:101460005D4A8164C1640165904208D05B4A904244
:1014700005D05C4A904202D0594A904201D1416560
:101480008165C1670122A06C20650020A16584F8F8
:101490005420B0BDB0FFFDBF50B12DE9F04186B082
:1014A000154682B104464069012803D1042009E0B1
:1014B0000120704727682A460E463846FFF71BFA78
:1014C00020B105202061012002F089BD3846314657
:1014D0002A46FFF71FFA0028E8D10220854A207328
:1014E00000202061286A02F0DBFD61F39A624FB1AF
:1014F00096B11746CDF8048001AA02F0B0FD98B16C
:101500000620DFE7DEB14FF6FC702840104346F8B6
:1015100028002660022021E04FF6FC70384010437E
:1015200045F82800256017E0A0680399814209D199
:10153000606858B14FF6FC710840384304E0012060
:1015400025600BE056F8280045F828004FF6FC709F
:101550002840384346F82800A0680130A0600020E9
:1015600002F035FDB0E700BF68B161B190F85420DA
:1015700090F85430022B18BF052A06D1002180F8BC
:101580004C1040218165012070470A7B022A02BF6E
:1015900001200861704702680F4B9A420DD00F4B33
:1015A0009A420AD00E4B9A4207D00E4B9A4204D070
:1015B0000A6892F8202092070CD4036D4A68812BA8
:1015C00003D122B1416700207047002AFAD00420DD
:1015D0000861D8E70320FBE750030240D003024034
:1015E00050130240D01302402DE9F04186B078B18B
:1015F000066804462EB1606828B1B04206D10025C5
:1016000007E0022003E06069012805D10420206181
:101610000125284602F0E3BC0220002500212073AA
:101620002561376A07F0020000F105082046CDF871
:10163000048001AAFFF785F979082E4A4FF6FC705D
:1016400061F35962304061F39A620499104402F0E8
:101650006EFCDEE7002844D0436F002B41D010B56C
:1016600090F8544002685169012C04D0022C3AD100
:1016700011F4803137D090F8541001292BD190F813
:101680004C400221012C30D002F066FC012180F890
:101690004C10516941F4BA415161416E19B151691F
:1016A00041F400715161006F18B1506940F400506D
:1016B000506118684FF6FF710E4B20EA010111606E
:1016C0004FF6FC710140006A400860F3596360F313
:1016D0009A635818D0675069002140F001005061AA
:1016E00003E0012103E002F03EFCBDE810400846A3
:1016F000704700BF000001F802460120AAB1CB06E6
:1017000012D5136840F6FF7201F0110123EA0202BC
:1017100003F57B63C3F3C4139840112951680CBFD0
:10172000084321EA000050600020704710B50446CD
:1017300000680C21024661F30B02116800F57B6220
:10174000C2F3C412D140C90700F0A680016949055F
:1017500009D54169490506D54FF48061C160A16D85
:1017600041F00101A1650169090509D54169090532
:1017700006D54FF40061C160A16D41F00201A16581
:101780000169C90409D54169C90406D54FF48051DE
:10179000C160A16D41F00401A1650169490409D549
:1017A0004169490406D54FF48041C160A16D41F003
:1017B0000801A165016989050AD54169890507D52F
:1017C0004FF40071C160616E11B1204688472068F6
:1017D0000169890427D54169890424D54FF4005152
:1017E000C16094F85410042915D1416921F40051C5
:1017F0004161416941F002014161012184F85410C5
:1018000094F85020120641BF626F11730021816469
:101810000020E16E39E0052184F85410216F11B1E8
:101820002046884720680169C90520D54169C90556
:101830001DD594F85010090604D4816C69B904F1DF
:10184000540108E0C16F41B9816C31B9012184F8BC
:101850005410616F0C3101220A70002184F84C1081
:101860004FF44071C160216E09B120468847A06DD8
:1018700090B12068416941F00201416102F0D8FA5B
:1018800044BF616F08730020A16E84F84C0019B149
:101890002046BDE81040084710BD30B170B590F843
:1018A0004C40012C03D1022070BD0120704701245F
:1018B00080F84C4090F85440012C24D1022480F848
:1018C0005440002484650468456EA66CC3EA060390
:1018D000A3644FF4FE43E360E1642265616941F46F
:1018E000BA4161611DB1616941F400716161006FCC
:1018F00018B1606940F400506061606940F0010017
:101900006061002070BD002180F84C10402181658D
:10191000012070BD2DE9F84F4E4A4FF0000E4FF0F8
:10192000010A4FF000094FF0000B02EA90220092EA
:1019300000220C6834FA02F508BFBDE8F88F0AFAF5
:1019400002F514EA05087CD04E6846F01003122B0D
:1019500014D10EF01C030F2404FA03F66FF00304F5
:1019600004EA52040444276A27EA06060F6907F0CE
:101970000F0707FA03F3334323624E68032406F08C
:101980000303076804FA09F403FA09F3A7436FEAAB
:10199000040C3B43122E036014D80AFA06F313F02A
:1019A000061F0DD08368CC6803EA0C0304FA09F41F
:1019B00023438360330944689340AC43234343602B
:1019C000032E3ED0C3688C6803EA0C0304FA09F4C2
:1019D0002343C360F30034D522F003051E4F0BF000
:1019E00018030F243D449C402E6E26EA0404009EFA
:1019F00006FA03F323432B663B684D6843EA080469
:101A0000EE0258BF23EA08043C60AE027B6843EA5A
:101A1000080458BF23EA08047C60AE03D7F884307A
:101A200043EA080458BF23EA0804C7F88440ED03DA
:101A3000D7F8803043EA080458BF23EA0804C7F8FF
:101A400080400EF1040E09F102090BF1080B01327E
:101A50006FE700BF7F7F2F0000200244006908402D
:101A600018BF01207047426902EA0103914341EA2D
:101A70000341816170471823002A08BF2823C15001
:101A8000704700000A480068704700BF03480168BB
:101A900041F0010101600020704700BF00040340D5
:101AA0003348034900780A6810440860704700BF53
:101AB000E809002080B5032000F098F801F01AFB37
:101AC0000A490B4A096801F00F01515CC8402A49D4
:101AD0000860042001F0FEFF0F2000F00BF808B1B1
:101AE000012080BD00F04AF8002080BD200C024497
:101AF000656E000870B51E4E04463078C8B11D49A9
:101B0000096849070AD402F01BF802281DD00128F1
:101B100023D050BB30784FF4FA5101E04FF47A7182
:101B2000B1FBF0F014490968B1FBF0F001F0F8FFE7
:101B300008B1012507E04FF0FF30214600220025C3
:101B400000F02EF87460284670BD30784FF47A713A
:101B5000B1FBF0F04FF40041E6E730784FF47A71D2
:101B6000B1FBF0F04FF4FA41DEE70020DEE700BF02
:101B70000000002010E000E0080000207047000096
:101B8000002809D400F01F010122C0F34A1002FA14
:101B900001F1024A42F82010704700BF00E100E066
:101BA000F0B5184B4FF0FF361C68C4F30224E51E55
:101BB00084F0070438BF002506FA05F7BA43042C61
:101BC00028BF042406FA04F4A14300F00F04A9403E
:101BD000043C1143044A234409010244002848BF3D
:101BE00003F10C021170F0BD00E400E005494FF66E
:101BF000FF030A681A4060F30A2203481043086092
:101C0000704700BF0CED00E00000FA0501684A6D66
:101C100042F001024A650122C0F8D422002280F875
:101C2000CC22486D40F002004865002070477047A4
:101C3000B0B501F0070501EB810405EB850500EB6C
:101C4000C40400EBC5001430090658BF04F5AA709F
:101C500012B10121836001E0C380002101730020E3
:101C6000B0BD0000F8B5574A044611F00F0000EB74
:101C700040001268D26902EB800000F1640608BFE0
:101C8000161D356861B1A86E6A6C40B300203AB386
:101C9000E864A86620460022002300F06EF91DE0EB
:101CA000307A01281AD12046002100220023AF6B90
:101CB00000F01FF9FB69E86C98421BD9296CCA181F
:101CC000C11A99422A6438BF0B46397DC01AE864AC
:101CD000204601B0BDE8F04000F04FB9F8BD104615
:101CE000A8640220286300206865706840F008003E
:101CF0007060F8BDA86E012808D1397D2046002209
:101D00000023002600F039F9AE66F8BD0220E96D27
:101D1000286300206865686CA864706840F008005B
:101D2000706011B105F13000884704203072F8BDB1
:101D3000F8B5244A044601F00F0000EB4000126899
:101D4000D26902EB8006756861B1204600F0A5F803
:101D5000A864022000212863B068696540F008008B
:101D6000B0601BE0307B022818D120460021AF6B09
:101D700000F093F80346D5E9110119448142A964A2
:101D80000DD92720E96D6865B06840F00800B060A3
:101D900021B105F13000BDE8F8400847F8BD0CD08E
:101DA000F869834209D1286C397DC21820462A641B
:101DB00001B0BDE8F04000F09CB8B06840F440705D
:101DC000CEE700BFF005002001F0070249B202EBA8
:101DD0008202002900EBC20303F5AA7248BF03F197
:101DE00014020068114603F0A5B910B5044602F0CC
:101DF00002F9C3BF002281F8552101F5AA71012221
:101E0000DCBF4A751431087094F89402012804BFAD
:101E1000022010BD02F013F902F098FE02F0DBB8C8
:101E2000B0B50446007901F00F02824201D90125C4
:101E30001AE002F0E0F8C3BF002281F8552101F555
:101E4000AA710122DCBF4A7514310870002594F88C
:101E500094028D70012801D1022505E002F0EFF80F
:101E600002F0ECFE84F894522846B0BD10B502F0A2
:101E70006DF904BF022010BD01204AB284F894021B
:101E80002068B2F1FF3F02DD03F084F903E001F0C6
:101E9000070103F081F902F09EB801F0070101EBA0
:101EA000810100EBC100D0F870017047B0B5044665
:101EB00002F0A1F8C3BF002581F8555101F5AA71C0
:101EC0000125DCBF4D7514310A61CB700870022BFF
:101ED00004BF0020087194F89402012804BF022076
:101EE000B0BD02F0ACF802F0FDFC002084F89402D2
:101EF000B0BDB0B501F00701002501EB810400EB96
:101F0000C404006804F5B47784F8541104F5AA7188
:101F100084F855512CC702F0E1FE0020B0BD10B589
:101F2000044601F007002279904284BF012010BDD1
:101F30004AB2B2F1FF3F09DD01EB8101002204EB5F
:101F4000C10181F8552101F5AA7106E000EB80017D
:101F5000012204EBC1014A75143194F894220870EF
:101F600001208870012A04BF022010BD84F8940269
:101F7000206802F099FE02F02EB8B0B501F0070417
:101F8000002504EB840100EBC101006801F8144F47
:101F9000012401F1140781F824400B624C702CC716
:101FA00002F09CFE0020B0BD2DE9F84F0446006809
:101FB00003F0F4F801041BD4410500F1128341043D
:101FC00000F11E83810400F11F83C10400F120830E
:101FD000010500F13C83010600F14883810500F111
:101FE0005383C00540F1318320684FF6FF6229E337
:101FF00004F52770D74D00902168486C000440F12B
:1020000024834A6C12F00F0B3BD051F82BA05FEAEF
:102010000A4040F1088151F82B00284040F0800030
:1020200041F82B000BEB8B0004EBC00898F8600123
:1020300008F5AA76002800F08B8098F8570102284E
:1020400040F08F8008F5B67930785FEA4A4100F1B8
:10205000AE8002F0A5F80746D9F800000021C01BA9
:1020600038BF0846C9F8000001D802F04BF85FEA13
:102070004A6003D43078216801F0FCFF002F7CD146
:10208000B9E00868D2061FD4284040F40040086038
:10209000B149207D51F83000A16AC0F309402063A6
:1020A00008440021A0622046FFF7DCFD607C002888
:1020B000A2D0E06A00289FD12068617C41F08001B5
:1020C000C1640020607497E7020559D4000493D5D9
:1020D0000868284040F08000086094F8540102F03D
:1020E0006FF8C4F8700198B1D4F8681181B1B4F8F0
:1020F0005A210346206803F053F8D4F86801D4F855
:10210000701108440021C4F868012046FFF710FE52
:10211000206801680A053FF56FAF01F44051B1F541
:10212000405F3FF469AF8C4B596821F07C415960A6
:10213000D4F86411002900F0DF813E2900F2DE812D
:1021400001F0010202EB51015A6842EA8161E2E1C9
:10215000307802F035F800284DD0B8F85A210746FB
:1021600042E0307801F086FF51F82010490435D460
:1021700002F016F800283ED00746B8F85E2133E09A
:1021800094F8540102F01CF8B4F85A210346C4F83C
:1021900070012068009903F003F820680168294065
:1021A00041F080010160204600F038FB24E701F097
:1021B000E5FF0746D9F800000021C01B38BF0846DC
:1021C000C9F8000001D801F09DFF5FEA4A6003D51D
:1021D0003078216801F04EFF27B90CE001F0CEFF06
:1021E00048B10746B8F85C21D8F8681120683B462A
:1021F00002F0D6FF00E0002708F5B47207CA3A449F
:102200003844C8F87021C8F8680119B1D8F86401D9
:10221000B84204D931782046FFF78AFD03E02068F0
:10222000314602F05BFD5FEA0A607FF5E5AE2068AB
:1022300050F82B10294041F4004140F82B100BEBD3
:102240008B0104EBC107F97D07F1140B01291DD1A6
:102250000020F86297F82000002800F0D680787DF2
:102260005FEA4A6163D4012800F0B880002840F09A
:10227000CC809BF80000384901EBC000416821F098
:102280007C414160416841F00041B0E05FEACA51E1
:1022900018D49BF80010304A002652F83120FB6A0F
:1022A000C2F309429B1A38BF3346FB6240F2AF804B
:1022B000B96A3B6B1144B96299183963594602F007
:1022C0000DFD99E69BF80000A94607F12C055FEA91
:1022D0004A6143D401F064FF29680022091A38BF1B
:1022E000114629606AD95FEA4A4101D401F0E7FE4C
:1022F0003A4612F8381F012940F064813D4655F8EE
:10230000348F55E904C155F804EC0EEB000345F891
:10231000043C014445F80C1CE04580F0AA80B8F16B
:10232000000F00F01A810020C4461070A3E00128BD
:102330005FD0002869D19BF80000E44A52F83010C1
:1023400021F07C4142F8301052F8301041F0004149
:1023500059E000BF0F0FFF070064014001F00EFFBE
:1023600029680022091A38BF114629602ED95FEA70
:102370004A4101D501F0A3FE3D4615F8381F012959
:1023800040F020813A4652F834CF52E9048152F8A5
:1023900004EC0EEB000342F8043C014442F80C1C30
:1023A000C44580F087804FF0000EBCF1000FC74B92
:1023B00085F800E040F08280844681E0787D50B36B
:1023C0000128C24A2ED101F098FD29E0787D90B312
:1023D0000128BE4A36D101F090FD31E09BF80000A3
:1023E000BA4901EBC000416889B24160416841606F
:1023F0000BE09BF80000B54A52F8301089B242F861
:10240000301052F8301042F830109BF8001020467F
:10241000FFF728FCF0E59BF80010AC4A01F042FD04
:10242000426001E09BF800102046FFF71BFC5FEACA
:102430004A4010D5C6E09BF80010A44A01F032FDD6
:10244000426001E09BF800102046FFF70BFC5FEABA
:102450004A4040F1B7809BF8000021684B464CF29F
:10246000800351F8202002EA09021A4341F8202093
:10247000A8E0A8EB0C002860787D944A012854D08D
:10248000002840F084809BF80000BCF1000F02EBB4
:10249000C00050F8042F22F07C42026061D0BCF1F1
:1024A0003E0F65D80CF00102036802EB5C0243EAC0
:1024B00082626BE0ACEB080EC446844BC2F800E0CD
:1024C000787D01283DD0002876D19BF80000BCF132
:1024D000000F53F8302022F07C4243F8302042D0E5
:1024E000BCF13E0F55D853F830200CF0010303EB3C
:1024F0005C0342EA83625CE059680AE0CA064FF076
:10250000FF364FEA511208BF06EB5112596841EAF3
:10251000826141F00041596005F540510268114067
:102520004BF280025140016066E59BF8000002EB2F
:10253000C000426892B24260426842EA0C42426085
:1025400025E09BF8000053F8302092B243F8302089
:1025500053F8302042EA0C422CE0002384461370EA
:102560008AE7026810E053F8302042F0004221E090
:102570005FEACC624FF0FF334FEA5C1208BF03EB17
:102580005C12036843EA826242F000420260FA8B06
:1025900013E05FEACC624FF0FF334FEA5C1208BFF2
:1025A00003EB5C12494B53F8303043EA826242F04D
:1025B0000042464B43F83020BA8B1FFA8CF3206858
:1025C00002F010FE9BF80000216809F130034D462F
:1025D00051F820201A4048F2B0035A4041F8202018
:1025E0000AE520684FF6FF32416C114041642046F5
:1025F00000F0E6F820460021BDE8F84F00F000B9F1
:1026000020684BF6FF721DE020684DF6FF7219E05E
:102610002068016C21F004010164016C21F00801C3
:10262000016494F8CC02012806D10020002184F82E
:10263000CC022046FFF7FBFA204600F0D1F82068D4
:102640004EF6FF72416C11404164BDE8F88F20687E
:102650004FF2FF72016C41F008010164416C1140BE
:102660004164016C41F00401016408E020684FF608
:102670007F72416C1140416494F8CC1279B12046CC
:10268000BDE8F84F00F030B920684FF6FF52416CBA
:10269000114041642046BDE8F84F00F0A9B8016C34
:1026A00041F004010164016C41F008010164012161
:1026B00084F8CC123C21406D01EA90000121C4F85D
:1026C000D0022046BDE8F84FFFF7B1BA00640140E0
:1026D000002843D07CB5044690F8950228B9002024
:1026E00084F89402204600F03BF8032084F8950219
:1026F000206802F09DFA20790021012200230025A4
:10270000A84209D0E61828333575C6E90911F162E7
:10271000F17572750135F3E704F5AA710022002303
:10272000984208D00B70C1E904228A61CA704A70CD
:1027300028310133F4E794E80F00257C009502F07E
:1027400069FA00200121607484F89512217B012927
:1027500003D12046FFF75AFA00207CBD01207047C4
:1027600010B5A4B0044602A880210830FDF735FF5B
:102770002068114988421DD110200390002002904A
:102780003020219002A800F0BFF808B1FEF72EF922
:102790000A480022016841F0807101600021006850
:1027A00000F08070019001984A20FFF7F9F94A2063
:1027B000FFF7E6F924B010BD00600140A40C02440C
:1027C000B0B54D4C2068406A08B103F0F9FC2068B0
:1027D0000125C0F8885102F00FFE20684562B0BDA7
:1027E00045480068D0F8AC1109B1F320084770479C
:1027F00041480068D0F8AC1109B1F0200847704793
:1028000010B501F0A3FC04BF022010BD617401F0FB
:1028100016FC02F0E1FC01F0DEBB0000F8B5054655
:102820003548082205F527710068C469676807F113
:102830006C0004F000F9A068012220F00E017A6318
:102840000020A1607865B86497F96C20B2F1FF3F71
:10285000DEBF41F48070A060F8BDA073384610F868
:10286000722F12B997F87320E2B1BE6B04F056F9DB
:10287000B0F5807F786409D92046314602F027FD03
:1028800000202073A06840F400700DE00346002093
:10289000FA6B317DB86428463A64FFF72AFB0220C0
:1028A0002073F8BD41F40070A060F8BD10B501F0D0
:1028B0004DFC04BF022010BD01F0C1FB02F064FC1E
:1028C000206802F09BF901F086BB10B501F03EFCD8
:1028D00004BF022010BD01F0B2FB02F0A9F920688C
:1028E00002F092F901F077BB03480068D0F8AC1110
:1028F00009B1F42008477047F0050020014801F0B5
:10290000C5BA00BF240802442DE9F0470446006818
:10291000C101C849894608D5216BD9F8C0204B466A
:1029200022F040421143C9F8C010C00714D0606BB8
:10293000C11E032908D338B1012840F0958201F067
:10294000D8FA064648B9606BD9F8B0104A4621F06B
:1029500007010843C9F8B00000262078800701D499
:1029600035461DE0A06B6FF00201354601EBF0012A
:10297000032909D34FEAF000354628B1012840F079
:10298000758201F0B6FA05462F4655B9A06BD9F805
:10299000B01000254A4621F038010843C9F8B000BC
:1029A0003746207840071BD5E06B6FF0020101EB42
:1029B000B011032908D34FEAB01028B1012840F024
:1029C000588201F096FA05462E4655B9E06BD9F8C3
:1029D000B01000254A4621F4E0710843C9F8B00060
:1029E0003E466078C00619D5206C6FF0020101EBFD
:1029F0003061032908D34FEA306028B1012840F044
:102A00003B8201F076FA05462F4645B9206C01F06D
:102A1000B1FA21F0E0610843C9F8B80037466078A0
:102A2000800618D5606C6FF0010101EB304102297E
:102A300008D34FEA304028B1012840F0378101F037
:102A400058FA05462E463DB9606C01F09FFA21F414
:102A5000403101F0ABFA3E466078400618D5A06CD4
:102A60006FF0010101EBB041022908D34FEAB040F9
:102A700028B1012840F01D8101F03BFA05462F46A0
:102A80003DB9A06C01F082FA21F4402101F08EFAE8
:102A90003746A078C00714D0E06C48B1B0F1007F91
:102AA00006D0B0F1807F40F0FB8001F022FA0546AD
:102AB0002E463DB9E06C01F069FA21F0407101F059
:102AC00075FA3E466079C00614D5206D48B1B0F164
:102AD000006F06D0B0F1806F40F0E58001F009FA98
:102AE00005462F463DB9206D01F050FA21F04061B6
:102AF00001F05CFA3746D4E9000109054E498A46DF
:102B00000DD5DAF80010534621F40041CAF8001040
:102B1000D4F88010DAF800201143CAF800108003BE
:102B20001BD5606D6FF0020101EB3021032908D342
:102B30004FEA302028B1012840F0A18101F0D9F9F5
:102B400005462E4655B9606DD9F8B41000254A46A1
:102B500021F4E0610843C9F8B4003E46A07840077C
:102B60001BD5A06D6FF0020101EB3031032908D3B2
:102B70004FEA303028B1012840F0848101F0B9F9E2
:102B800005462F4655B9A06DD9F8B41000254A4620
:102B900021F4E0410843C9F8B4003746A078800624
:102BA00012D5606E052800F27081022800F0708155
:102BB000294655B9606ED9F8C01000254A4621F063
:102BC00007010843C9F8C0003946D4E9000292055C
:102BD0000FD5A26E42F00803082B0CD1A8466DB9A0
:102BE000D9F8C0304D46002523F008031A43C9F830
:102BF000C020884602E001254FF00108800101D481
:102C000040461FE0AE4F5AF8070040F001004AF876
:102C10000700FEF737FF064650465AF80700C00780
:102C20000CD1FEF72FFF801B0228F5D903250320C6
:102C300008E000BF280C02441C0C0244002D28466A
:102C400000F0D48021684A011DD5226E6FF0010387
:102C500003EB3213022B0BD34FEA321343B1012B98
:102C60002AD1D9F800304E4643F40033C9F8003079
:102C70002F464DB9D9F8C0304D46002523F030031A
:102C80001A43C9F8C0200746080125D5E06EC11EC9
:102C9000022917D3012812D088BB01F0C8F911E02E
:102CA000012501260EE70125012724E7012501263C
:102CB000D2E601250127ECE601250127E4E701F032
:102CC00018F905462E4645B9E06E01F053F921F09A
:102CD00007010843C9F8B8003E46E078C0061ED593
:102CE000206F6FF0020101EBF00102290DD34FEAD2
:102CF000F000012806D030BB01F099F905E001256C
:102D00000126EAE701F0F5F805462F4645B9206FA0
:102D100001F030F921F038010843C9F8B80037460E
:102D2000E07880061FD5606F6FF0020101EBB011F3
:102D300002290ED34FEAB010012807D0002852D143
:102D400001F075F905E001250127E9E701F0D1F867
:102D500005462E4645B9606F01F00CF921F4E0718B
:102D60000843C9F8B8003E462079400719D5E06D00
:102D700058B1B0F5007F05D0B0F5807F1FD101F0CC
:102D800056F902E001F0B5F805462F4655B9E06D59
:102D9000D9F8C01000254A4621F440710843C9F80B
:102DA000C00037462079C00617D5E06F30280CD018
:102DB000202807D0102814D101F039F905E00125A9
:102DC0000127EFE701F095F805463DB9E06FD9F826
:102DD000BC1021F0300101F0E9F83D462846BDE87D
:102DE000F0870125FAE701250126BDE74846D9F815
:102DF000C80010F4407017D0A16F884212D0D9F8E3
:102E0000C800D9F8C8104A4641F4803120F4407017
:102E1000C9F8C810D9F8C81021F48031C9F8C81011
:102E2000C9F8C800C00737D1A06FDAF800202549DB
:102E300000F4407301EA10116FF31F3022F47C524A
:102E4000B3F5407F08BF0A43CAF800200025D9F82F
:102E5000C8104A4621F44071C9F8C810D9F8C81002
:102E60000843C9F8C800CBE6012676E5012501270D
:102E700097E501250126B4E501250127CFE50125C8
:102E800001266BE60125012788E6012501219CE644
:102E900001F02FF805468BE6FEF7F4FD064641F2F9
:102EA000883703254846D9F8C8008007BCD4FEF708
:102EB000E9FD801BB8424FF00300F3D9C2E600BF22
:102EC00008FCFFFFCFFFFF002DE9F843002800F0CA
:102ED000A6807B4B04460D46186800F00F00884220
:102EE0000AD2186820F00F0028431860186800F014
:102EF0000F00A84240F093802068B94FC1060CD55E
:102F0000396A702202EA11226169914205D93A6A4E
:102F100022F4E04242EA01213962010704D501F0BE
:102F2000EAF801D901F09FF8994641070AD5E1680E
:102F30003A6A02F07002914281BF3A6A22F070024E
:102F40001143396281070AD5A1683A6A02F00F027B
:102F5000914281BF3A6A22F00F0211433962C007E1
:102F600053D1206881070AD5A1683A6A02F00F029E
:102F700091423FBF3A6A22F00F0211433962D9F8F9
:102F8000001001F00F01A9420CD9D9F8001021F06E
:102F90000F012943C9F80010D9F8001001F00F0102
:102FA000A9423CD141070AD5E1683A6A02F07002B1
:102FB00091423FBF3A6A22F0700211433962010721
:102FC00004D501F098F801D201F04DF8C0060CD5F7
:102FD000386A702101EA10216069884205D2396A95
:102FE00021F4E04141EA0020386200F083F8396AB8
:102FF0003E4A01F00F01515CC8403D49086031482C
:103000000068BDE8F843FEF775BD6068012809D087
:1030100002284DD003284FD13968890105D40120F9
:10302000BDE8F88339688905F9D5F96921F003010C
:103030000843F861FEF726FD0646606841F28838CD
:10304000032823D002282DD001280CD1F86900F0E4
:10305000180008283FF485AFFEF714FD811B0320FC
:103060004145F3D90AE0F86910F0180F3FF479AF41
:10307000FEF708FD811B03204145F4D9BDE8F88324
:10308000FEF700FD811B03204145F7D8F86900F0E9
:1030900018001828F4D164E7FEF7F4FC811B032024
:1030A0004145EBD8F86900F018001028F4D158E732
:1030B00039688903B3D5B8E739688907AFD5B4E76C
:1030C000002002400400002080B500F013F80649FB
:1030D000064A096801F00F01515C01F01F01C84068
:1030E0000349086080BD00BF200C0244656E0008E3
:1030F00008000020B0B53A49C86900F01800082857
:1031000004BF3848B0BDC86910F0180F32D0C86984
:1031100000F01800102804BF3348B0BDC86900F0A3
:1031200018023248182A5AD18B6A8A6A8C6A8D6BC7
:10313000C2F305223AB3E406ED0803F0030305EAFF
:10314000E474032B6FF35F3400EE104AB8EE400ACC
:103150001BD0012B1CD10B689B0651BF9FED251A7C
:103160000B68C3F3C103D84044BF01EE100AB8EEA8
:10317000411A0FE0086880061C4830D50968C1F381
:10318000C101C840B0BD0020B0BD9FED191A01E0DB
:103190009FED191A486B9FED193A6FF35F2002EE0D
:1031A000100A486BC0F34620B8EE422A013000EE08
:1031B000032AB7EE000A32EE000A02EE102AB8EE39
:1031C000422A81EE021A21EE000A01EE100AB8EE40
:1031D000411A80EE010ABCEEC00A10EE100AB0BD22
:1031E000000C024400093D0000127A000090D00358
:1031F0000024F44A0024744C0024744A000000396E
:1032000050B32DE9F843E04F0446F86900F0180880
:10321000DE488146006800F003062078C00628D505
:10322000B8F1080F1AD0B8F1180F08BF022E15D048
:103230003868E169002900F05D8140F4807000F099
:10324000FEFD0546386880050CD4FEF71BFC00F037
:103250004CFEF7D9BDE8F88301207047E0690028EB
:1032600000F0D380206AB96921F47C1141EA004062
:10327000B8612078C00727D0B8F1100F20D0B8F17E
:10328000180F08BF032E1BD06068002800F0808153
:10329000B0F5A81F00F09581B0F5A02F00F099813E
:1032A000B0F5803F00F09D81386820F480303860B0
:1032B000386820F480203860386820F4801093E16A
:1032C0006068002800F0A180207880074DD5B8F113
:1032D000000F1DD0E068B8F1180F08BF012E2FD0E5
:1032E0003968002800F03181206921F01801084375
:1032F0003860386840F0010000F0A1FD05463868EC
:1033000080072BD4FEF7BEFB00F0EFFDF7D9A1E755
:10331000E068002879D02069396801F018018142FD
:1033200010D0396821F0180108433860FFF7CCFE4F
:10333000DFF818040068FEF7DDFB002865D101E026
:10334000002862D0FEF79EFB05463868800705D44A
:10335000FEF798FB401B0228F7D96FE060693969D6
:1033600021F4FE0141EA00403861207800074FD483
:103370002078400765D42078800600F19580A66A01
:10338000002E00F0E081B8F1180F40F0C2804846EE
:10339000D9F80010012ED9F80C0036D0E26A01F0FD
:1033A0000303934231D1C1F30521226B91422CD109
:1033B0000146626B6FF35F21013A914225D1A26B06
:1033C000C0F34621013A91421FD1E26BC0F306419E
:1033D000013A914219D1216CC0F30660013988424B
:1033E00013D1E06CD9F81010C1F3CC01814200F088
:1033F000AA8100F05DFEFEF745FB0546FEF742FBA5
:10340000A842FBD000F0EEFD9BE10120BDE8F8836F
:10341000D9F8C800A1694E46002958D040F0806014
:10342000C6F8C800FEF72EFB0546D6F8C800000116
:103430009ED4FEF727FB401B0228F6D90320BDE8E7
:10344000F883C34EB859C0070FD1B85940F00100F6
:10345000B851FEF717FB0546B859C00705D1FEF76E
:1034600011FB00F042FDF7D9F4E6A068002800F057
:10347000C9808528494600F0E980052800F0EB80E6
:10348000012800F0EE80D1F8C80020F00100C1F85A
:10349000C800D1F8C80020F00400C1F8C800D1F875
:1034A000C80020F08000E0E03868616A00295BD045
:1034B00040F4805000F0C3FC0546386880043FF5B6
:1034C0005EAFFEF7DFFA00F010FDF6D9C2E620F09D
:1034D0008060C6F8C800FEF7D5FA05464846D9F818
:1034E000C80000017FF544AFFEF7CCFA00F0FDFC08
:1034F000F4D9AFE620F4807000F0A1FC05463868EE
:1035000080057FF5B6AEFEF7BDFA00F0EEFCF6D909
:10351000A0E6386820F0807000F091FC0546022E8D
:1035200009D13868800140F1B480FEF7ABFA00F0B1
:10353000DCFCF6D98EE63868800140F1FE80FEF7AB
:10354000A1FA00F0D2FCF6D984E621F0010000F0E7
:1035500076FC0546386880077FF507AFFEF792FADC
:1035600000F0C3FCF6D975E620F4805000F067FC4B
:103570000546386880047FF502AFFEF783FA00F055
:10358000B4FCF6D966E600BF000C0244280C0244E5
:10359000386820F480303860386820F48010386053
:1035A000386820F4802000F04AFC05463868800323
:1035B0007FF58AAEFEF766FA411B03206429F5D930
:1035C00048E6386840F480203860386840F480105D
:1035D00006E0386840F480203860386820F48010B5
:1035E0003860386840F4803000F029FC05463868BF
:1035F00080033FF569AEFEF745FA411B03206429BD
:10360000F5D927E6D9F8C80020F00100C9F8C800AC
:10361000D9F8C80020F08000C9F8C800D9F8C8005F
:1036200020F00400C9F8C800FEF72CFA054641F264
:1036300088364846D9F8C80080077FF59CAEFEF76B
:1036400021FA411B0320B142F3D903E600F0E6FC66
:1036500040F0800003E000F0E1FC20F08000C1F8C1
:10366000C800D1F8C80040F00100C1F8C800FEF75A
:1036700009FA054641F288364846D9F8C80080075D
:103680003FF579AEFEF7FEF9411B0320B142F3D9B5
:10369000E0E5D9F8000043F6037104F12C058843F6
:1036A0002ECD0843591E40EA02206FF35F214FF4EC
:1036B000FE02C9F800004FF47E4000EB452080B2C6
:1036C0000844E16B02EB01414FF0FE4201F4FE01C0
:1036D0000844216C02EB016101F0FE410844C9F885
:1036E0000C0000F0E5FC00F07DFCC9F80000606C07
:1036F000D9F8001021F00C010843C9F80000D9F8EE
:103700000000A16C20F020000843C9F80000D9F89F
:10371000000040F48030C9F80000386840F0807044
:1037200000F08DFB0446386880010CD4FEF7AAF93E
:10373000011B03200229F6D98CE5D9F800000549C0
:103740000840C9F800000020BDE8F883040000200C
:1037500024FCFFFFFCFFF8FF10B591E81D001043AB
:10376000094A106044EA030288691043074A50601E
:1037700008691368496923F0FF13184340EA0140C0
:103780001060002010BD00BF1C780044207C004465
:1037900070B515480468200CC4F30423C4F3423602
:1037A00004F03F05C8708D704B700E70CAB91B09CC
:1037B000220A2D0904F00F0443EA830302F00F02EA
:1037C00045EA850502EB430204EB45044A7000F02C
:1037D0000F02C0B28C70000900EB800002EB4000C9
:1037E000C870002070BD00BF0478004470B5A748C1
:1037F00083684B60C36803F44073B3F5807F2BD0BC
:1038000003696FF3DF338B600468C4F38050C4F343
:10381000062304F07F058D70C870C4F305404B701B
:103820000870CAB91B09220A2D090009260C04F0E8
:103830000F0403EB830302F00F0205EB850540EA5A
:10384000800002EB430204EB45044A7006F00F02CD
:103850008C7002EB40000870002070BDB0B370B5F2
:10386000044690F82D0028B9002084F82C0020464A
:1038700000F040F80220964D84F82D002868C0061C
:1038800032D4CA20A8615320A86100F05AFBD0B9F5
:10389000E8681749261D0840E8604ECEA06931430C
:1038A0000843E9680843E86043EA02406860D4E9F5
:1038B00009012A6822F4F852104308432860204680
:1038C00000F006FD20B1FF21A96170BD0120704705
:1038D000D4E907126069EB6823F060431A4311438F
:1038E0000843E860FF20A86100F03CFC70BD00BF09
:1038F000BFFF8FFB10B5A4B0044602A8802108309A
:10390000FCF76BFE2068614988421BD100200390C0
:103910004FF0007002904FF48070209002A8FEF7E4
:10392000F3FF08B1FDF762F80748816C41F40041EC
:103930008164016841F400110160006800F4001026
:103940000190019824B010BDA80C02442DE9F0416B
:1039500000F0A1FA42D084F82D00012084F82C0058
:103960004AB16978EB782878AA780902460341EAD7
:1039700003418D1816E06E78DFF81481F00642BF1F
:1039800006F0EF0000F10A066E70E878C0470746BF
:103990003046C047000240EA0746A878C0470644C0
:1039A000287845030E4FCA2038605320386000F055
:1039B000C8FA10B1FF2139600DE045EA060020F099
:1039C000C00047F8200C204600F082FCFF2139603F
:1039D00008B900F0C7FB002184F82C10BDE8F08185
:1039E000247800442DE9F84300F055FA4CD084F8CF
:1039F0002D00CC4FCA2016467862012084F82C0096
:103A00005320786200F09DFA10B1FF21796238E00E
:103A1000F86800F44070B0F5807F2AD0B8696EB1C4
:103A2000400659BF0020E870E87880056A78297858
:103A3000AB78120242EA0141CE1812E0400659BFAB
:103A40000026EE70E8788605DFF844902878C847AD
:103A500080466878C847000240EA0848A878C84706
:103A6000404430430B4908403860B86920F4802056
:103A7000B861204600F02CFCFF21796208B900F003
:103A800071FB002184F82C10BDE8F8830078004415
:103A9000594200087F7F7F0070B50D4E04463068A4
:103AA00020F020003060FDF7EDFF0546306880060D
:103AB0000CD4FDF7E7FF401BB0F57A7FF6D93068EC
:103AC00080065EBF032084F82D0070BD002070BD0D
:103AD0000C780044042821D8DFE800F0030D102002
:103AE0001B002048016821F0040101601E480168A4
:103AF00021F00C0111E01B48012201E019480222CB
:103B0000016821F0040101601748016862F3830134
:103B100003E01448016841F004010160704700BFF0
:103B2000411E0020B0EB116F1CBF012070470D4AF1
:103B300051609060116841F003011160704700BF4F
:103B400008480068400744BF0420704706480068E2
:103B500000F00C01081FB0FA80F04009082908BFE6
:103B60000220704710E000E0E40C0244FEE710B5CC
:103B7000C1F30453C1F34061072400EB81009C4072
:103B80009A404169A1431143416110BDB0B588B06D
:103B900068462021FCF721FD184801210024042556
:103BA000174A80F83410C1614FF48071C0E90A44AB
:103BB00080F82040C0E90244C0E9044580F83C4058
:103BC0008463046301834FF48021C0E90021FDF781
:103BD00009F908B1FCF70AFF7F206946CDE90454D2
:103BE00003900620CDE90100064800900348FCF749
:103BF00049FF08B1FCF7FAFE08B0B0BDF805002097
:103C00000080024204006088E0B50A480022016892
:103C100041F0010101600021006800F00100019005
:103C200001981B20FDF7BCFF1B20BDE88C40FDF771
:103C3000A7BF00BF880C024483B00F48016841F061
:103C400004010160016801F0040102910299016818
:103C500041F080010160016801F08001019101994A
:103C6000016841F001010160006800F0010000906E
:103C7000009803B0704700BF8C0C024480B5FDF77C
:103C800005FF18B1BDE88040FCF7B0BE80BD000064
:103C9000B0B58EB007A818210430FCF79EFC02A82E
:103CA0001421FCF79AFC1E4800244FF080411D4D62
:103CB000FF227F230194C0E90844C0E90054C0E911
:103CC0000232C0E90444C0E90641FFF7C7FD08B16C
:103CD000FCF78CFE12480C94CDE90A44079407A91E
:103CE000FFF73AFD08B1FCF781FE00200022CDE984
:103CF00005008DF80A00ADF80800094802A9FFF791
:103D000071FE08B1FCF772FE0748002201900448DA
:103D100001A9FFF71BFE08B1FCF768FE0EB0B0BDAD
:103D2000B80900200078004401070118F0B589B0F7
:103D300024484FF4C0510022002302F07FFD00BB55
:103D400008A9012000F026FD044607A9002000F084
:103D500021FD054606A800F05FFD064605A800F017
:103D60004DFDDDE90572DDE90731DFF85CC0CDE925
:103D7000006202AA82E8811020462A4602F0C4FAB4
:103D800010B1FF2009B0F0BD104C11481149C4E931
:103D9000021011482546002145F8040F022000F0CA
:103DA000F7FC20600220002100F012FD03460B48C2
:103DB0000B492268009501F0E3FE002818BFFF20A0
:103DC000E0E700BFEC09002083440008F800002071
:103DD00081440008754400086D440008400000203C
:103DE000F156000880B50A48022200214272C271D1
:103DF0000822C0F80A10C0F80D100271054A0260CE
:103E0000FEF766FC18B1BDE88040FCF7EFBD80BD51
:103E1000D806002000600140FEE7FEE7A06D40F0FC
:103E20001000A065E06D40F00100E06501207047E2
:103E3000012084F8540094F8501009067047386047
:103E4000FDF720BEF06A43F60371884394E82E0024
:103E50000843591E40EA02206FF35F214FF4FE022F
:103E6000F0624FF47E4000EB452080B208442169A7
:103E700002EB01414FF0FE4201F4FE01084461698A
:103E800002EB016101F0FE4108447047016841F016
:103E90000101016070470D4690F82C100446022085
:103EA0000129704752F8310020F07C4042F831007F
:103EB00052F8310040F0004042F8310002EBC100FE
:103EC000426822F07C424260426842F00042704701
:103ED000DBF81830584614214A4618478020D4F899
:103EE000C460A073284601F099BF411B032002293A
:103EF000704704F1080000F077B99BF8001052F801
:103F0000310080B242F8310052F8310042F83100FD
:103F100002EBC100426892B242604268704701649D
:103F20000020704702200921122202F079BC41F8DA
:103F30002800012025616660207370473060FDF71E
:103F4000A1BD204600F09AB98168826801F00401A1
:103F500002F008028918704780F854101973002184
:103F6000816519617047002180F84C1040218165FE
:103F700001217047D9F8B81000254A4670470068FB
:103F8000B0FBF1F0022101EB40007047D9F8BC1002
:103F900000254A467047A069F16A21F00C010843E8
:103FA000F0627047002084F8540070470843C9F855
:103FB000BC0070470446006880684007704700F501
:103FC0008070A065A06DC0044FF000007047012113
:103FD000206121737047002084F8940210BD06B060
:103FE000BDE8F081E06CC000C9F81000D9F800000D
:103FF00040F01000704701F0070049B2B1F1FF3FF7
:1040000000EB800104EBC101704750F822104CF224
:1040100080032140194340F822107047D1F8C800AE
:1040200040F00400C1F8C800D1F8C8007047D9F8C2
:104030000000494640F40030C9F8000070470120F4
:1040400084F8940220687047DC1C4FF0FF3513F0B1
:1040500003004FEA940370472046FCF7D5BB204687
:104060003146FCF76EBC3A6A22F4E06242EA011182
:104070003962704748F2C00351F820202A401A43A1
:1040800041F82020704701F0010303EB5101136850
:1040900043EA8161704784F854002046FCF7E2BB94
:1040A000410800F0020061F3596200F10508704711
:1040B000D9F8000020F01000C9F8000070479BF804
:1040C000001022684D464CF2800552F8213003EA78
:1040D00009032B4342F82130704751F8302092B247
:1040E00041F8302051F830207047D5F8081321F0FE
:1040F000E07108437047396A702202EA111221699F
:10410000914270473078216805F5405351F82020DE
:104110001A404AF280035A4041F8202070476869EB
:104120002A690023C119286A696190427047F06AC0
:1041300020F01000F062306C8843216A40EAC10030
:104140003064F06A40F01000F0627047044690F866
:104150009402012870474A6892B24A604A68104344
:1041600048607047012084F82D00002070474268A5
:1041700092B24260426811434160704781B00A21A7
:104180000091009911B100990139F9E7034951F8FB
:104190003000C0F3094001B0704700BF0064014027
:1041A00081B00A210091009911B100990139F9E714
:1041B0000B4951F83000C0F3094001B0704700BF0F
:1041C00081B00A210091009911B100990139F9E7F4
:1041D000034951F83000C0F3094001B0704700BFF7
:1041E000046401407047000070B59A4E0446306880
:1041F00020F08060FFF7A2FE05463068000105D57B
:10420000FDF740FC401B0228F7D922E0FFF71AFE19
:10421000F063FFF7C0FEE069F16A21F02001084376
:10422000F062606AF16A08434FF6F871F062FFF7D6
:104230007EFF306840F08060FFF780FE0446306803
:10424000000144BF002070BDFDF71CFC001B0328CB
:10425000F5D3032070BD00BF0928014698BF09218E
:104260000A22B1FBF2F202EB8203A1EB4303591ADB
:10427000084440EA0210C0B2704700002DE9F04146
:10428000124E8046306840061CD430680027012456
:1042900040F080003060FDF7F5FB05463068E143F3
:1042A00041EA9010C0070ED1FDF7ECFB401BB0F5C2
:1042B0007A7FF3D93068400605D40327002488F8B4
:1042C0002D70EBE70027F8B2BDE8F0810C780044D0
:1042D000B0B5134D044655F80C0C20F0800045F89D
:1042E0000C0C2868800607D42046FFF7D5FB78B170
:1042F000032084F82D00B0BD286820F0200028603D
:104300002046FFF7C9FB28B1032084F82D0002E006
:104310000020B0BD0020296841F020012960B0BD17
:10432000187800447047FDF7BBBB0000B0B59CB0E7
:1043300000201821CDE90D00CDE90B0002A8FCF703
:104340004CF9244C206840F030002060206800F0D8
:1043500030000190019860680007FCD5FEF7CEFAA6
:10436000D4F8E00401214FF48032032561F3C40046
:10437000C4F8E0044FF480500992352200240A91D9
:1043800011901B900C2008923E221A941990022042
:10439000CDE914121890CDE91600CDE912052020C0
:1043A00010904FF480700F9008A8FEF729FF08B115
:1043B00072B6FEE71F20CDE90354CDE9054407940A
:1043C0000521029002A8FEF77FFD08B172B6FEE754
:1043D0001CB0B0BD1008024410B51D4801221E4C8F
:1043E000D0F8801041F47001C0F8801019490A60BB
:1043F0000022CA610A620B6823400B60174B8A6275
:10440000CA624B638A63CB630A640B6823F480231C
:104410000B600A654FF0006101601148C1684A0FE6
:10442000062A04D801F06041B1F1404F0ED1016974
:10443000C9071FBF0B4901600B490160016941F0C9
:1044400002010161016941F00101016110BD00BF7C
:1044500008ED00E0000C0244E3EAE2FA8002010108
:104460000C2002403B2A19087F6E5D4C034908600E
:10447000704700BF0148002101607047F40500202B
:10448000704700207047A0B1B0B5002304462578DE
:1044900015B101340133FAE7DCB2148001220B704C
:1044A000037823B1D4B2013001320B55F8E7BDE8EF
:1044B000B04070472DE9FE4F064696488A460023D5
:1044C0000292C1F80E004FF4007088819248886013
:1044D0004FF0804048609149CAF800101221012A2B
:1044E000C6E9481311460DD1CAF816008C480121BF
:1044F000CAF812001C20AAF81A10C6F820014FF4BE
:10450000007000E04020874C4FF05C0E06F10C0B71
:104510004FF000080190B8F1030F00F0E6807068DA
:1045200002289CBFB168022902D908F10108F2E70C
:1045300014F80820002AF8D000FB0E673B4653F819
:10454000185F002D40F0CC80D6F8205138613A73C6
:104550000AEB050901251D60029B337070B9192310
:1045600089F80830704BC9F8043040F20923C9F8C3
:104570000030D6F824310933C6F82431022A40F03D
:10458000AF800022202321B1F55801395C332A4441
:10459000F9E700FB0EB0511C019F644DCDF800A05F
:1045A000DA463B4680F84F1080F84E200221032265
:1045B000C0E90421304601210222A847304681216A
:1045C00002223B46A8473046822103220823A847FF
:1045D000D6F824014FF05C0E716840F60832DDF821
:1045E00000A04FF488754FF0000C564F20F80920BA
:1045F00001FB0EB200EB0901423092F84E308B7095
:1046000004234B724A4BC1F803304FF41063A1F8F6
:10461000073092F84E308D82464DC1F81650464D07
:10462000C1F80F50454DC1F80B5081F813C08B7283
:10463000062592F84F3081F8215042F20545A1F845
:104640001F503F4DC1F81B508B7640F2075592F832
:104650004E3081F8223092F84F308D8481F823302B
:10466000032381F8273092F82430D28C0A8540F257
:10467000094281F82630052381F82A30A1F82B2041
:10468000726802FB0EB292F84F30C1F82E702E4FB6
:10469000C1F83270022781F82D30137E528B81F8D9
:1046A000377081F83AC081F83E7081F836300A8759
:1046B000A1F83B50726802FB0EB2937F128C81F816
:1046C00041C0C6F82401A9F8020099F8040081F855
:1046D0003D30A1F83F20023089F80400D6E90101FD
:1046E00001310130C6E901011FE7B068012802D994
:1046F0000120EF2104E02078022808D100200221C7
:104700008AF8060002208AF804108AF8050050464C
:10471000BDE8FE8F0102030183041057120100025D
:104720000A0600020C000020000100C04D470008EE
:104730000202020105240100010005240001020219
:104740000424020200020A0000000705F0B5D0F8B8
:1047500004C05C2500270CFB050505F12806ED6962
:10476000BD4205D0347814B106360137F8E73D462E
:104770005C240CFB040005EB450400EB4400012421
:1047800080F82840C38480F8252080F82410F0BDEC
:104790000120704770B50C4618B10B4D094E02460A
:1047A00002E0154E094D002230462946FFF782FEF1
:1047B00006F5927006F5907109680068084420605B
:1047C000284670BDC0030020D00100200801002051
:1047D00070B5094B00220024B2F58A7F04BFE0B215
:1047E00070BD9D182E7B864202BF2E7D8E4295F8AD
:1047F0005A405C32F0E700BF98020020B0B5054D8A
:10480000044640F2094028802846FBF7C7FE206096
:104810002846B0BDE80400202DE9FC47214D804624
:1048200001200DF1060ADFF894905246A87040F27C
:104830000940E91C28800020ADF806001AA0C847EE
:104840009DF806400927042602215246201DC0B2C9
:104850002F54601DC0B22E54A01DC0B22954E01DBB
:1048600055FA80F116A0C8479DF80600032220449F
:1048700000F10801C9B26F5400F10901C9B26E54C8
:1048800000F10A010B30C9B26A5455FA80F111A047
:104890005246C8472846FBF781FEC8F80000284664
:1048A000BDE8FC87EC04002053544D6963726F65CA
:1048B0006C656374726F6E696373000087440008EF
:1048C00053544D3332205553422044657669636515
:1048D0000000000030303030303030303030303197
:1048E00000000000F0B50B78CE78934C50F82320F0
:1048F00004F5F7451540032E08D84FF0000CDFE80B
:1049000006F002080D0B45F4007507E04FF0010CAE
:1049100004E045F4806501E045F4C06548F2800795
:104920003D4340F8235004F5807550F823202A4079
:104930001A433A4340F823200A7B002A57D0022E1C
:1049400008BF48F2801750F82320A64622403A4379
:104950004FF6FF7740F82320784A52F83340BC43A3
:1049600042F8334052F833400F8927F003073C43A5
:1049700042F8334002EBC30254686FF30F045460F3
:1049800054684F8927F003073C43546050F8237064
:104990004978002956D0790407D550F823104CF2F5
:1049A00080022940114340F8231050F82310490693
:1049B00007D550F8231048F2C0022940114340F8AF
:1049C000231050F823100EF5987248F2A0041140FD
:1049D00048F280024C40012E08BF41EA020440F830
:1049E000234050F823100EF54454214051E04A78FA
:1049F000002A50D0514AA6464FF6FF7452F8337041
:104A000027EA040442F8334052F83340C98821F0C1
:104A10000301214342F8331050F82310490607D50B
:104A200050F8231048F2C0022940114340F82310E7
:104A300050F823100EF598721140012E27D048F23D
:104A4000A00274E0790407D550F823104CF28002DC
:104A50002940114340F8231050F82310490607D588
:104A600050F8231048F2C0022940114340F82310A7
:104A700050F823100EF5445211404BF28002514081
:104A80000EF5987240F8231050F82310114048F2A8
:104A9000800211434CE0294A27464FF6FF7602EB8D
:104AA000C3025468B44354605468CE8826F00306A9
:104AB0003443161D5460546824F07C4454600969E2
:104AC00049B13E2909D801F0010202EB51013268D7
:104AD00042EA81610EE031680AE0CC064FF0FF3215
:104AE0004FEA511408BF02EB5114316841EA846166
:104AF00041F00041316050F82310490407D550F8C7
:104B000023104CF280022940114340F82310002B5F
:104B10001FBF50F8231007F5445211404AF280029B
:104B200001BF07F54451026811404BF28002514029
:104B300040F823106046F0BD0F0EFF0700640140EF
:104B40000148FDF731BA00BFD8060020F0B50A7859
:104B50004B78097B50F8225079B3524CB3B36904B7
:104B600001D5FFF752FA50F8221004F130034CF24D
:104B70008005490604F5405107D550F8226048F2F7
:104B8000C00726403E4340F8226050F8226034407F
:104B90002C4340F8224048F2800450F822502B4029
:104BA000234340F8223050F82230194048F2800365
:104BB000194340F822100020F0BDB3B1394B6C0608
:104BC00003F13001EFD548F2C004E6E7690401D5EE
:104BD000FFF71BFA50F8221004F5405348F2C005C5
:104BE000490604F13001C8D4CFE72E4B6C0403F51D
:104BF0004051D8D54CF28004CFE700BF816D41F41D
:104C00000041816500207047816D21F4004181657C
:104C10000020704701210164016C21F00101016451
:104C2000016C21F0004101640021416400207047C3
:104C3000016C4BF680729143FFF771B90A7B7ABB26
:104C4000B0B50A784C7850F8223094B15B06154B19
:104C500007D550F8224048F2C0051C402C4340F8CC
:104C60002240C978012919D003F1300148F2A0038C
:104C70000EE00C4C5B0404F5405107D550F822308F
:104C800023404CF28004234340F822304BF280034F
:104C900050F822402140594040F82210BDE8B04071
:104CA000002070470F0FFF070A7849780A4B002948
:104CB00004BF43F60F73C0F2FF7350F8221001EAED
:104CC000030148F2900308BF49F28003594040F8BD
:104CD00022100020704700BF3F0FFF072DE9F84367
:104CE0004B780D460446012B5CD1AF692969E54E2E
:104CF0008F4228BF0F46287B002878D0E8782B6A9F
:104D0000022840F0A1802878B046A6F5807654F8B5
:104D1000202032408B4240F2D38048F28011114370
:104D200044F82010296AC91B296254F8201049064A
:104D30004FEA074100F1F280D34EBBB256F8302063
:104D400092B246F8302056F83020114346F8301021
:104D500069692A8900F046FAFFF7E1F988BFC31BA9
:104D60002B6288BF38466A78012A00F051813346A9
:104D7000002A464640F0B4812A78002803EBC2029C
:104D800052F8043F23F07C43136000F090813E28EA
:104D900000F2978100F00103166803EB500346EA26
:104DA00083639BE1287B80B3E878012863D00228E5
:104DB0001CBF0120BDE8F8832878002B40F00D814E
:104DC000DB4A52F8301021F07C4142F8301029695A
:104DD000002900F0D2803E2900F2D28001F00106C5
:104DE00052F8303006EB510643EA8663D6E0EA8893
:104DF0006969BBB200F0F6F92878F649FFF76DF95A
:104E000042EA074241F8302081E12969AA69F14B61
:104E1000501A38BF0020A8618A42287803EBC003EB
:104E20005D6825F07C455D6038BF11460433BF4A9C
:104E3000002960D03E2960D801F0010505EB510141
:104E40001D6845EA816165E0D81B2978F34A28622C
:104E500054F8210040064FEA074044D452F831305C
:104E60009BB242F8313052F83130184342F83100E9
:104E700069692A893DE02A69A869811A38BF002139
:104E8000A96138BF0246A948002B00F54051287897
:104E900040F00A81E14B002A53F8305025F07C4560
:104EA00043F8305000F0B1803E2A00F2C78002F093
:104EB000010653F8305006EB520645EA8665CBE012
:104EC00048F28001114344F82010D449FFF705F956
:104ED00042EA03429BB241F8302069692A8900F016
:104EE00081F9464613E102EBC101FFF734F9696924
:104EF0006A89BBB209E119680AE0CE064FF0FF35B6
:104F00004FEA511608BF05EB5116196841EA866150
:104F100041F00041196002F54051C5E0BF4ABBB203
:104F200002EBC0009146FFF722F969696A8900F037
:104F300059F9FFF7F4F888BFC31B2B6288BF3846C6
:104F40006A78012A6FD0002A464640F0DC802A7831
:104F5000002859F8323023F07C4349F8323000F011
:104F6000AB803E2800F2BE8000F0010659F83230D6
:104F700006EB500643EA8663C2E052F830300BE09D
:104F8000CE064FF0FF334FEA511608BF03EB511620
:104F900052F8303043EA866343F0004342F8303041
:104FA00002EBC00252F8043F23F07C43136021B1AE
:104FB0003E2904D8FFF767F80EE011680AE0CE0634
:104FC0004FF0FF334FEA511608BF03EB511611683B
:104FD00041EA866141F000411160544AEB6902F5F3
:104FE0004051002B60D054F820305D0402D45B06A1
:104FF00002D559E05B0657D554F820301A4048F2E4
:10500000C0031A4344F820204EE053F8305021E00A
:105010002A7806EBC20253689BB25360536843EA96
:10502000004353605BE02A7859F832309BB249F86C
:10503000323059F8323043EA004361E0D6064FF08F
:10504000FF354FEA521608BF05EB521653F83050A1
:1050500045EA866545F0004543F8305003EBC00350
:1050600053F8045F25F07C451D604AB13E2A0DD8F7
:1050700002F0010505EB52021D6845EA826212E06A
:105080001A680EE00F0FFF0700640140D6064FF0CC
:10509000FF354FEA521608BF05EB52161A6842EA6E
:1050A000866242F000421A604BF2800234E01368DC
:1050B00043F00043136013E059F8323043F00043EB
:1050C0001FE0C6064FF0FF334FEA501608BF03EB50
:1050D0005016136843EA866343F000431360464664
:1050E0006A8911E0C6064FF0FF334FEA501608BF39
:1050F00003EB501659F8323043EA866343F000431D
:10510000464649F832302A8983B200F06BF806F13E
:105110003001287848F2B00254F82030194051404C
:1051200044F820100020BDE8F88300BF0F0FFF07F0
:105130000064014010B54B780A7B012B0BD1E2B91A
:105140000A78CB780F4C50F822102140012B0BD05D
:1051500048F2A0030EE082B90A78CB78084C50F8E8
:1051600022102140012B03D148F28003194302E0B1
:105170004AF28003594040F82210002010BD00BFC1
:105180000F3FFF073F0FFF07002141644BF680717F
:10519000FEF7C5BE0020704700207047406C704786
:1051A000B0B5FEF751FF18BF05EB94031B4C22442A
:1051B00023B110CA013B41F8044BF9E748B112682A
:1051C000002322FA03F40833013801F8014B0404E8
:1051D000F7D1B0BD0064014009B98021C16400204D
:1051E00070470000B0B5FEF72FFF18BF05EB940322
:1051F0000A4C224423B151F8044B013B10C2F9E799
:1052000050B10023002411F8015B01389D400833A0
:105210002C430504F7D11460B0BD00BF0064014009
:10522000FEE7B0B54B6903F07F04072C26D8024691
:10523000D0F8C4000579AC4220D204EB44041D062A
:1052400002EB840404F1640258BF221D5468E50790
:1052500014D144F0010433F080058A60C2E90014DF
:1052600003F080045572947206D08C698A8BD9B28F
:1052700004F00303FCF71AFE0020B0BD1420B0BDFB
:1052800080B5D0F8C4008A680023097D5360FCF71C
:10529000ACFD002080BDF8B50C4605468F6801F0D6
:1052A00039FB06460020217D3872786820F443706F
:1052B0007860D5F8C400FCF7B3FDD5F8C400217DB3
:1052C000FCF7D4FD304601F029FB0020F8BD80B585
:1052D0008A68097DD0F8C400536843F00403536022
:1052E000927A1143FCF71BFE002080BD01F07F0283
:1052F000090602EB420200EB820000F1640258BF93
:10530000021D5068C107C0F3800008BFFF2070472E
:105310000020704710B5036883B10A390B2915D8EE
:10532000C069DFE801F00613181D22272C31373A37
:105330003E431146BDE81040FFF7EABF5524022066
:105340000221552201F06CFA204610BD542402209F
:1053500002215422F6E71146BDE8104000F0F6B8ED
:105360001146BDE8104000F0E1B81146BDE810401C
:10537000FFF757BF1146BDE81040FFF781BF114648
:10538000BDE81040FFF787BFD0F8C400D1B2FDF7E9
:1053900037FA14E000F08EF801E00B2A0BD000245D
:1053A000D2E71146BDE81040FFF791BF1146BDE8B6
:1053B0001040FFF79BBFD0F8C400FDF786FA044603
:1053C000C2E70000B0B5B7480C460021C822056806
:1053D00080206860002001F0A9FA48B10549056005
:1053E000C0F8C440C5E90610012028600020B0BD07
:1053F0001220B0BD15530008F8B5AA4D2C68D4F89A
:10540000A401E669012802D1D4E94F010AE0002095
:10541000C4F8A401D4F88801012814BFD4E94901D3
:10542000D4E94701C4E94501214904F128030E22CA
:1054300001F053FA42F21070D4F89C1004F16002AB
:10544000A369C4F8C400206CC4F89820C4E92810EB
:10545000E06720460E219847D6F8C40000210027B7
:10546000FCF704FDD6F8C400B4F840200021002366
:10547000FCF71CFDD6F8C4008021FCF7F7FCD6F839
:10548000C400B4F8402080210023FCF70FFD012068
:1054900008216766C4E924002868C4E92917C4F80C
:1054A000AC10D0F8AC1109B1012088470020F8BD3C
:1054B00023000020F8B50446466801F02BFAA168E5
:1054C0004A0518D411F4407715D0042206F13005AE
:1054D00062F30A21A16001F021FAB7F5407F0ED0F6
:1054E000B7F5807F12D1012020738020A073284659
:1054F00000F094FC15E0BDE8F84001F00FBA002080
:105500007065FEF7EBFC60B9032003E0FEF7E6FCF4
:1055100038B9042020733046002100220023FCF714
:105520002CFDA06820F48060A060F8BDB0B58D6847
:105530000446D0F8C400297DFCF746FCD4F8C4002A
:10554000297DFCF793FC0020B0BD00002DE9F0415F
:105550008C680D460646A76801F0DCF98046F648DF
:105560000068406A98B17868410714D4810716D45E
:1055700040F002006169EA686B69AD6A7860D6F84C
:10558000C400C9B2032D12D1FCF7F7FC11E02620AC
:10559000686201250EE02120686204250AE0010707
:1055A00007D540F2054104250840786002E0FCF789
:1055B000A0FC0525404601F0B1F92846BDE8F08180
:1055C0008168006A806C88600160416819B180B5AB
:1055D0008847BDE880400020704700002DE9F04179
:1055E000E649006A846C0F6897F8CD6007F1CE0039
:1055F00001F094FA804607F1D20001F08FFA202ED4
:1056000016D0212E29D0222E1CBFFF20BDE8F0810C
:105610000020A4F84B005FEAC8701CBF012084F88A
:105620004B005FEA887044BF012084F84C000FE013
:10563000D7F89C0001F075F96064D7F89C000179F7
:1056400084F84810417984F84910807984F84A0038
:10565000E16819B32046884720E00546D7F89C004A
:10566000616C01F060F9D7F89C0094F848102A4664
:105670000171D7F89C0094F849104171D7F89C004B
:1056800094F84A10817103202946C7F8B80007F141
:105690009000072D28BF072101F04EF80020BDE83B
:1056A000F08100BFF0050020F8B5006A846C206826
:1056B000466B7069756A10F08007304608BF28464F
:1056C000262101F033F8002F08BF35462846262151
:1056D00001F02CF8204607210022002500F046F8B2
:1056E000A16809B1204688470020A4F84B50F8BDB6
:1056F00001460068421E5420062A09D8DFE802F05D
:1057000004090C0F1208150048690A3818BF572001
:1057100070470846FFF754BF0846FFF7C5BF084665
:10572000FFF75CBF084600F003B8084600F087B8F2
:10573000B0B50446056A00200021502201F0F6F8B9
:1057400090B10821A86480F84A100121A0F84810FF
:105750004FF4E1314164616AD1E900238968C16095
:10576000C0E901230020B0BD1220B0BD70B50546D0
:10577000481E08284AD81446DFE800F018232E36C1
:10578000404848050500083918BF01212868406BCA
:10579000426902F08002B2EBC11F18BF406A016B80
:1057A00001290EBFFF264466002646E02068002639
:1057B0006864207985F84800B4F80500A5F8490028
:1057C0003BE0686C0026206095F848002071B5F831
:1057D0004900A4F8050030E095F84B0095F84C100E
:1057E00000262170607028E02868022C406B14D0DD
:1057F000012C18D1017D090612D512E020786178BC
:10580000002685F84C0085F84B1016E00220072191
:105810005422542601F004F80FE0017D090600D55A
:10582000406A002600E053263030042100F062FF79
:105830000020012C14BF68622864304670BD006AE5
:10584000806C20B180B501F0FFF8BDE880400020F9
:1058500070470000F8B50446E2480068406A032833
:105860001BD120681D46466B307D000658BF766A06
:10587000206C22283CD0212819D010BB22202123C3
:105880000027A1624FF4007104F1300CACE88600EF
:10589000C4E90F03D2B900221EE0022007215122E1
:1058A000512500F0BDFF0020C4E90F500BE0D4E902
:1058B0000D10814209D10021286004202164E16398
:1058C000F8BD002020640120F8BD0A1AB2F5007F5F
:1058D00002D94FF4007202E040F201202063E2623C
:1058E000A16AF06B01F0A7F8002030662220206446
:1058F000D4E90B1206F1300000F02EFF032805D882
:1059000000202064706DE0630320F8BD04280DD1F1
:10591000B06CA36BA26A716D03441044E163A3638E
:105920002B60A062606B18B1212020640520F8BDB7
:10593000002020640420F8BDF0050020CB49096850
:105940004A6A032A08D101F1FC02126822B15369A4
:10595000834203D03032F8E7FF207047D1F89C0033
:105960009269027003200122C1F8B8000120C1F839
:10597000A40001F19000012100F0DEBEF00500203E
:105980002DE9F04F9FB00546B8480468224652F80A
:10599000240F03280DD104F1FC00D0F80080B8F1E9
:1059A000000F08D0D8F81400A8420BD008F130003E
:1059B000F3E754274DE0022007215222522700F03E
:1059C0002FFF46E0D8F81800884201D1002740E0B8
:1059D000D4E9456A08F10C00DFF8DC9702910192E6
:1059E0001146009017AFBAF1000F31D0707896F8D9
:1059F00000B002280AD13046494608223B4600F052
:105A00006CFFD4F8D8001B99814203D05E44AAEB06
:105A10000B0AE8E7DDF86490DFF8E0BB0DF1380A27
:105A2000B9F1000F14D07078377804280CD13046C3
:105A300059460922534600F050FF1098A84203D15E
:105A400011980299884208D03E44A9EB0709E7E77C
:105A5000FF2738461FB0BDE8F08FD8F83450002734
:105A600085B12846262100F061FEA36920460F215A
:105A70002A469847686AC5E90A77C5E900776F62E0
:105A80000546EDE700203D490127C8F8340030788D
:105A90000644A9EB0009B9F1000F4DD0707896F8D3
:105AA00000B0022818BF042804D1D9465E44A9EBEF
:105AB0000B09F0E70528F9D1D4E94250D0B32A68A0
:105AC00012B101387835F9E705F10C0330460622AA
:105AD0002F608A4600F001FFCD4AE9690846126846
